{
  "contractName": "KajalOpslag",
  "abi": [
    {
      "anonymous": false,
      "inputs": [
        {
          "indexed": false,
          "internalType": "address",
          "name": "sender",
          "type": "address"
        },
        {
          "indexed": false,
          "internalType": "uint256",
          "name": "amount",
          "type": "uint256"
        },
        {
          "indexed": false,
          "internalType": "uint256",
          "name": "balance",
          "type": "uint256"
        }
      ],
      "name": "numbers",
      "type": "event"
    },
    {
      "inputs": [],
      "name": "owner",
      "outputs": [
        {
          "internalType": "address payable",
          "name": "",
          "type": "address"
        }
      ],
      "stateMutability": "view",
      "type": "function",
      "constant": true
    },
    {
      "inputs": [],
      "name": "initialize",
      "outputs": [],
      "stateMutability": "nonpayable",
      "type": "function"
    },
    {
      "inputs": [],
      "name": "depositnumbers",
      "outputs": [],
      "stateMutability": "payable",
      "type": "function",
      "payable": true
    },
    {
      "inputs": [],
      "name": "numberstBalance",
      "outputs": [
        {
          "internalType": "uint256",
          "name": "",
          "type": "uint256"
        }
      ],
      "stateMutability": "view",
      "type": "function",
      "constant": true
    }
  ],
  "bytecode": "0x608060405234801561001057600080fd5b506103db806100206000396000f3fe60806040526004361061003f5760003560e01c80632ed74a67146100445780638129fc1c1461006f5780638da5cb5b146100865780638f8764df146100c7575b600080fd5b34801561005057600080fd5b506100596100d1565b6040518082815260200191505060405180910390f35b34801561007b57600080fd5b506100846100d9565b005b34801561009257600080fd5b5061009b610218565b604051808273ffffffffffffffffffffffffffffffffffffffff16815260200191505060405180910390f35b6100cf61023e565b005b600047905090565b600060019054906101000a900460ff16806100f857506100f7610360565b5b8061010e575060008054906101000a900460ff16155b610163576040517f08c379a000000000000000000000000000000000000000000000000000000000815260040180806020018281038252602e815260200180610378602e913960400191505060405180910390fd5b60008060019054906101000a900460ff1615905080156101b3576001600060016101000a81548160ff02191690831515021790555060016000806101000a81548160ff0219169083151502179055505b33603460006101000a81548173ffffffffffffffffffffffffffffffffffffffff021916908373ffffffffffffffffffffffffffffffffffffffff16021790555080156102155760008060016101000a81548160ff0219169083151502179055505b50565b603460009054906101000a900473ffffffffffffffffffffffffffffffffffffffff1681565b603460009054906101000a900473ffffffffffffffffffffffffffffffffffffffff1673ffffffffffffffffffffffffffffffffffffffff163373ffffffffffffffffffffffffffffffffffffffff1614610301576040517f08c379a00000000000000000000000000000000000000000000000000000000081526004018080602001828103825260098152602001807f6e6f74206f776e6572000000000000000000000000000000000000000000000081525060200191505060405180910390fd5b7f9b90dccc930cf3da627f063a3828847d5e4b7a7ff63c0fca796f453b9c63496f333447604051808473ffffffffffffffffffffffffffffffffffffffff168152602001838152602001828152602001935050505060405180910390a1565b6000803090506000813b905060008114925050509056fe436f6e747261637420696e7374616e63652068617320616c7265616479206265656e20696e697469616c697a6564a264697066735822122018b57a6d0c95de057c5859c773cb02d5394639a56cd72e193318fe183445c7af64736f6c634300060c0033",
  "immutableReferences": {},
  "source": "pragma solidity ^0.6.0;\r\n\r\nimport \"@openzeppelin/upgrades-core/contracts/Initializable.sol\";\r\n\r\n/// @title simple way of storing and viewing data with permissions\r\n/// @author Kajal\r\n/// @notice dont use this contract for real use it only implements the basics to show some working function for the assignment\r\n/// @dev Functions are working but for web usage eth that gets send needs to be coded\r\ncontract SimpleStorage is Initializable {\r\n/// @author Kajal\r\n/// @notice kill contract and deposit only works if you are the owner\r\n/// @dev working application in remix\r\nevent numbers(address sender, uint amount, uint balance);\r\n    string private names; //later use\r\n\r\n    address payable public owner;\r\n   \r\n   function initialize() public initializer {\r\n   owner = msg.sender;\r\n    }   \r\n\r\n modifier onlyOwner() {\r\n     require(msg.sender == owner, \"not owner\");\r\n     _;\r\n }\r\n    //demonstrate that only the owner can deposit in the contract\r\n     function depositnumbers() public payable onlyOwner{\r\n     emit numbers(msg.sender, msg.value, address(this).balance);\r\n }\r\n    ///@return balance of the smartcontract dont need to be the owner to see it\r\n    //gets the current stored balance value\r\n    function numberstBalance() public view returns (uint){\r\n     return address(this).balance;\r\n }\r\n    //can only be used by the owner to kill the contract\r\n    //commented because zepplin cant compile with this\r\n    //function close() public { \r\n    //selfdestruct(owner); \r\n    //}\r\n }\r\n",
  "sourcePath": "C:/Users/kajal/KajalTruffle/contracts/KajalOpslag.sol",
  "compiler": {
    "name": "solc",
    "version": "0.6.12+commit.27d51765.Emscripten.clang"
  },
  "schemaVersion": "3.3.3",
  "updatedAt": "2021-01-30T00:44:41.135Z",
  "networkType": "ethereum",
  "devdoc": {
    "author": "Kajal",
    "details": "Functions are working but for web usage eth that gets send needs to be coded",
    "events": {
      "numbers(address,uint256,uint256)": {
        "author": "Kajal",
        "details": "working application in remix"
      }
    },
    "kind": "dev",
    "methods": {
      "numberstBalance()": {
        "returns": {
          "_0": "balance of the smartcontract dont need to be the owner to see it"
        }
      }
    },
    "title": "simple way of storing and viewing data with permissions",
    "version": 1
  },
  "userdoc": {
    "events": {
      "numbers(address,uint256,uint256)": {
        "notice": "kill contract and deposit only works if you are the owner"
      }
    },
    "kind": "user",
    "methods": {},
    "notice": "dont use this contract for real use it only implements the basics to show some working function for the assignment",
    "version": 1
  }
}