{
  "contractName": "OpslaanGegevens",
  "abi": [
    {
      "inputs": [],
      "name": "owner",
      "outputs": [
        {
          "internalType": "address payable",
          "name": "",
          "type": "address"
        }
      ],
      "stateMutability": "view",
      "type": "function",
      "constant": true
    },
    {
      "inputs": [],
      "name": "initialize",
      "outputs": [],
      "stateMutability": "nonpayable",
      "type": "function"
    },
    {
      "inputs": [
        {
          "internalType": "string",
          "name": "_gegevens",
          "type": "string"
        }
      ],
      "name": "setGegevens",
      "outputs": [],
      "stateMutability": "nonpayable",
      "type": "function"
    },
    {
      "inputs": [],
      "name": "getGegevens",
      "outputs": [
        {
          "internalType": "string",
          "name": "",
          "type": "string"
        }
      ],
      "stateMutability": "view",
      "type": "function",
      "constant": true
    }
  ],
  "bytecode": "0x608060405234801561001057600080fd5b506105c9806100206000396000f3fe608060405234801561001057600080fd5b506004361061004c5760003560e01c806310ae4ca4146100515780638129fc1c146100d45780638da5cb5b146100de578063e142d63114610112575b600080fd5b6100596101cd565b6040518080602001828103825283818151815260200191508051906020019080838360005b8381101561009957808201518184015260208101905061007e565b50505050905090810190601f1680156100c65780820380516001836020036101000a031916815260200191505b509250505060405180910390f35b6100dc61026f565b005b6100e66103ae565b604051808273ffffffffffffffffffffffffffffffffffffffff16815260200191505060405180910390f35b6101cb6004803603602081101561012857600080fd5b810190808035906020019064010000000081111561014557600080fd5b82018360208201111561015757600080fd5b8035906020019184600183028401116401000000008311171561017957600080fd5b91908080601f016020809104026020016040519081016040528093929190818152602001838380828437600081840152601f19601f8201169050808301925050505050505091929192905050506103d4565b005b606060338054600181600116156101000203166002900480601f0160208091040260200160405190810160405280929190818152602001828054600181600116156101000203166002900480156102655780601f1061023a57610100808354040283529160200191610265565b820191906000526020600020905b81548152906001019060200180831161024857829003601f168201915b5050505050905090565b600060019054906101000a900460ff168061028e575061028d6104b1565b5b806102a4575060008054906101000a900460ff16155b6102f9576040517f08c379a000000000000000000000000000000000000000000000000000000000815260040180806020018281038252602e815260200180610566602e913960400191505060405180910390fd5b60008060019054906101000a900460ff161590508015610349576001600060016101000a81548160ff02191690831515021790555060016000806101000a81548160ff0219169083151502179055505b33603460006101000a81548173ffffffffffffffffffffffffffffffffffffffff021916908373ffffffffffffffffffffffffffffffffffffffff16021790555080156103ab5760008060016101000a81548160ff0219169083151502179055505b50565b603460009054906101000a900473ffffffffffffffffffffffffffffffffffffffff1681565b603460009054906101000a900473ffffffffffffffffffffffffffffffffffffffff1673ffffffffffffffffffffffffffffffffffffffff163373ffffffffffffffffffffffffffffffffffffffff1614610497576040517f08c379a00000000000000000000000000000000000000000000000000000000081526004018080602001828103825260098152602001807f6e6f74206f776e6572000000000000000000000000000000000000000000000081525060200191505060405180910390fd5b80603390805190602001906104ad9291906104c8565b5050565b6000803090506000813b9050600081149250505090565b828054600181600116156101000203166002900490600052602060002090601f016020900481019282601f1061050957805160ff1916838001178555610537565b82800160010185558215610537579182015b8281111561053657825182559160200191906001019061051b565b5b5090506105449190610548565b5090565b5b80821115610561576000816000905550600101610549565b509056fe436f6e747261637420696e7374616e63652068617320616c7265616479206265656e20696e697469616c697a6564a2646970667358221220454e2e785194c952a70add1ab79d382b34b3456dc9778a07ff542fe92ad0f1f464736f6c634300060c0033",
  "immutableReferences": {},
  "source": "pragma solidity ^0.6.0;\r\nimport \"@openzeppelin/upgrades-core/contracts/Initializable.sol\";\r\n\r\n/// @title simple way of storing and viewing data with permissions\r\n/// @author Kajal\r\n/// @notice dont use this contract for real use it only implements the basics to show some working function for the assignment\r\n/// @dev Functions are working but for web usage eth that gets send needs to be coded\r\n\r\ncontract OpslaanGegevens is Initializable {\r\n\r\n/// @author Kajal\r\n/// @notice kill contract and deposit only works if you are the owner\r\n/// @dev working application in remix\r\n\r\n    string private gegevens;\r\n\r\n    address payable public owner;\r\n   \r\n   function initialize() public initializer {\r\n   owner = msg.sender;\r\n    }  \r\n\r\n modifier onlyOwner() {\r\n     require(msg.sender == owner, \"not owner\");\r\n     _;\r\n }\r\n    \r\n function setGegevens(string memory _gegevens) public onlyOwner {\r\n        gegevens = _gegevens;\r\n    }\r\n    \r\n function getGegevens() public view returns (string memory) {\r\n        return gegevens;\r\n    }\r\n    //can only be used by the owner to kill the contract\r\n    //commented because zepplin cant compile with this\r\n    //function close() public { \r\n    //selfdestruct(owner); \r\n    //}\r\n }",
  "sourcePath": "C:/Users/karan/KajalWeek9/contracts/OpslaanGegevens.sol",
  "compiler": {
    "name": "solc",
    "version": "0.6.12+commit.27d51765.Emscripten.clang"
  },
  "schemaVersion": "3.3.3",
  "updatedAt": "2021-02-18T20:44:01.404Z",
  "networkType": "ethereum",
  "devdoc": {
    "author": "Kajal",
    "details": "Functions are working but for web usage eth that gets send needs to be coded",
    "kind": "dev",
    "methods": {},
    "stateVariables": {
      "gegevens": {
        "author": "Kajal",
        "details": "working application in remix"
      }
    },
    "title": "simple way of storing and viewing data with permissions",
    "version": 1
  },
  "userdoc": {
    "kind": "user",
    "methods": {},
    "notice": "dont use this contract for real use it only implements the basics to show some working function for the assignment",
    "version": 1
  }
}