{
  "contractName": "Kajalcontract",
  "abi": [
    {
      "inputs": [
        {
          "internalType": "uint256",
          "name": "_numbers",
          "type": "uint256"
        }
      ],
      "name": "setNumbers",
      "outputs": [],
      "stateMutability": "nonpayable",
      "type": "function"
    },
    {
      "inputs": [],
      "name": "getNumbers",
      "outputs": [
        {
          "internalType": "uint256",
          "name": "",
          "type": "uint256"
        }
      ],
      "stateMutability": "view",
      "type": "function",
      "constant": true
    }
  ],
  "bytecode": "0x608060405234801561001057600080fd5b5060c78061001f6000396000f3fe6080604052348015600f57600080fd5b506004361060325760003560e01c806389f915f614603757806389fe8507146053575b600080fd5b603d607e565b6040518082815260200191505060405180910390f35b607c60048036036020811015606757600080fd5b81019080803590602001909291905050506087565b005b60008054905090565b806000819055505056fea2646970667358221220f419bd5a5107418e182b900fb3c9b2ce4d5a73ad83340baf7f2ff7f014bf128864736f6c634300060c0033",
  "immutableReferences": {},
  "source": "pragma solidity ^0.6.0;\r\n\r\ncontract Kajalcontract{\r\n    uint private numbers;\r\n    string private names; //later use\r\n\r\n    function setNumbers(uint _numbers) public {\r\n        numbers = _numbers;\r\n    }\r\n\r\n    function getNumbers() public view returns (uint) {\r\n        return numbers;\r\n    }\r\n    \r\n    //future improvement\r\n    //modifier onlyOwner() {\r\n     //require(msg.sender == owner, \"not the owner\");\r\n    // _;\r\n }",
  "sourcePath": "C:/Users/karan/Kajal07/contracts/Kajalcontract.sol",
  "compiler": {
    "name": "solc",
    "version": "0.6.12+commit.27d51765.Emscripten.clang"
  },
  "schemaVersion": "3.3.3",
  "updatedAt": "2021-02-09T20:03:26.513Z",
  "networkType": "ethereum",
  "devdoc": {
    "kind": "dev",
    "methods": {},
    "version": 1
  },
  "userdoc": {
    "kind": "user",
    "methods": {},
    "version": 1
  }
}